{"abi":[{"type":"function","name":"create","inputs":[],"outputs":[{"name":"","type":"address","internalType":"address"}],"stateMutability":"nonpayable"},{"type":"function","name":"entity","inputs":[{"name":"index","type":"uint256","internalType":"uint256"}],"outputs":[{"name":"","type":"address","internalType":"address"}],"stateMutability":"view"},{"type":"function","name":"isEntity","inputs":[{"name":"entity_","type":"address","internalType":"address"}],"outputs":[{"name":"","type":"bool","internalType":"bool"}],"stateMutability":"view"},{"type":"function","name":"totalEntities","inputs":[],"outputs":[{"name":"","type":"uint256","internalType":"uint256"}],"stateMutability":"view"},{"type":"event","name":"AddEntity","inputs":[{"name":"entity","type":"address","indexed":true,"internalType":"address"}],"anonymous":false},{"type":"error","name":"EntityNotExist","inputs":[]}],"bytecode":{"object":"0x60808060405234601557610215908161001a8239f35b5f80fdfe6080806040526004361015610012575f80fd5b5f3560e01c90816314887c581461011d575080635cd8b15e14610101578063b42ba2a2146100955763efc81a8c14610048575f80fd5b34610091575f3660031901126100915761006133610158565b506020604051337fb919910dcefbf753bfd926ab3b1d3f85d877190c3d01ba1bd585047b99b99f0b5f80a2338152f35b5f80fd5b34610091576020366003190112610091576004355f548110156100ed575f80527f290decd9548b62a8d60345a988386fc84ba6bc95484008f6362f93160ef3e56301546040516001600160a01b039091168152602090f35b634e487b7160e01b5f52603260045260245ffd5b34610091575f3660031901126100915760205f54604051908152f35b34610091576020366003190112610091576004356001600160a01b0381169190829003610091576020915f526001825260405f205415158152f35b805f52600160205260405f2054155f146101da575f54680100000000000000008110156101c65760018101805f558110156100ed5781907f290decd9548b62a8d60345a988386fc84ba6bc95484008f6362f93160ef3e56301555f54905f52600160205260405f2055600190565b634e487b7160e01b5f52604160045260245ffd5b505f9056fea2646970667358221220f3cb91a7b67b1d3be906064c29b5386de694e53d0a0f0dfcc6e5ed87fc3b3db064736f6c63430008190033","linkReferences":{}},"methodIdentifiers":{"create()":"efc81a8c","entity(uint256)":"b42ba2a2","isEntity(address)":"14887c58","totalEntities()":"5cd8b15e"},"id":109}