{"abi":[{"type":"constructor","inputs":[{"name":"chainId_","type":"uint256","internalType":"uint256"}],"stateMutability":"nonpayable"},{"type":"function","name":"DOMAIN_SEPARATOR","inputs":[],"outputs":[{"name":"","type":"bytes32","internalType":"bytes32"}],"stateMutability":"view"},{"type":"function","name":"PERMIT_TYPEHASH","inputs":[],"outputs":[{"name":"","type":"bytes32","internalType":"bytes32"}],"stateMutability":"view"},{"type":"function","name":"allowance","inputs":[{"name":"owner","type":"address","internalType":"address"},{"name":"spender","type":"address","internalType":"address"}],"outputs":[{"name":"","type":"uint256","internalType":"uint256"}],"stateMutability":"view"},{"type":"function","name":"approve","inputs":[{"name":"spender","type":"address","internalType":"address"},{"name":"value","type":"uint256","internalType":"uint256"}],"outputs":[{"name":"","type":"bool","internalType":"bool"}],"stateMutability":"nonpayable"},{"type":"function","name":"balanceOf","inputs":[{"name":"account","type":"address","internalType":"address"}],"outputs":[{"name":"","type":"uint256","internalType":"uint256"}],"stateMutability":"view"},{"type":"function","name":"decimals","inputs":[],"outputs":[{"name":"","type":"uint8","internalType":"uint8"}],"stateMutability":"view"},{"type":"function","name":"name","inputs":[],"outputs":[{"name":"","type":"string","internalType":"string"}],"stateMutability":"view"},{"type":"function","name":"name_","inputs":[],"outputs":[{"name":"","type":"string","internalType":"string"}],"stateMutability":"view"},{"type":"function","name":"nonces","inputs":[{"name":"","type":"address","internalType":"address"}],"outputs":[{"name":"","type":"uint256","internalType":"uint256"}],"stateMutability":"view"},{"type":"function","name":"permit","inputs":[{"name":"holder","type":"address","internalType":"address"},{"name":"spender","type":"address","internalType":"address"},{"name":"nonce","type":"uint256","internalType":"uint256"},{"name":"expiry","type":"uint256","internalType":"uint256"},{"name":"allowed","type":"bool","internalType":"bool"},{"name":"v","type":"uint8","internalType":"uint8"},{"name":"r","type":"bytes32","internalType":"bytes32"},{"name":"s","type":"bytes32","internalType":"bytes32"}],"outputs":[],"stateMutability":"nonpayable"},{"type":"function","name":"symbol","inputs":[],"outputs":[{"name":"","type":"string","internalType":"string"}],"stateMutability":"view"},{"type":"function","name":"symbol_","inputs":[],"outputs":[{"name":"","type":"string","internalType":"string"}],"stateMutability":"view"},{"type":"function","name":"totalSupply","inputs":[],"outputs":[{"name":"","type":"uint256","internalType":"uint256"}],"stateMutability":"view"},{"type":"function","name":"transfer","inputs":[{"name":"to","type":"address","internalType":"address"},{"name":"value","type":"uint256","internalType":"uint256"}],"outputs":[{"name":"","type":"bool","internalType":"bool"}],"stateMutability":"nonpayable"},{"type":"function","name":"transferFrom","inputs":[{"name":"from","type":"address","internalType":"address"},{"name":"to","type":"address","internalType":"address"},{"name":"value","type":"uint256","internalType":"uint256"}],"outputs":[{"name":"","type":"bool","internalType":"bool"}],"stateMutability":"nonpayable"},{"type":"function","name":"verifyingContract_","inputs":[],"outputs":[{"name":"","type":"address","internalType":"address"}],"stateMutability":"view"},{"type":"function","name":"version","inputs":[],"outputs":[{"name":"","type":"string","internalType":"string"}],"stateMutability":"view"},{"type":"event","name":"Approval","inputs":[{"name":"owner","type":"address","indexed":true,"internalType":"address"},{"name":"spender","type":"address","indexed":true,"internalType":"address"},{"name":"value","type":"uint256","indexed":false,"internalType":"uint256"}],"anonymous":false},{"type":"event","name":"Transfer","inputs":[{"name":"from","type":"address","indexed":true,"internalType":"address"},{"name":"to","type":"address","indexed":true,"internalType":"address"},{"name":"value","type":"uint256","indexed":false,"internalType":"uint256"}],"anonymous":false},{"type":"error","name":"ERC20InsufficientAllowance","inputs":[{"name":"spender","type":"address","internalType":"address"},{"name":"allowance","type":"uint256","internalType":"uint256"},{"name":"needed","type":"uint256","internalType":"uint256"}]},{"type":"error","name":"ERC20InsufficientBalance","inputs":[{"name":"sender","type":"address","internalType":"address"},{"name":"balance","type":"uint256","internalType":"uint256"},{"name":"needed","type":"uint256","internalType":"uint256"}]},{"type":"error","name":"ERC20InvalidApprover","inputs":[{"name":"approver","type":"address","internalType":"address"}]},{"type":"error","name":"ERC20InvalidReceiver","inputs":[{"name":"receiver","type":"address","internalType":"address"}]},{"type":"error","name":"ERC20InvalidSender","inputs":[{"name":"sender","type":"address","internalType":"address"}]},{"type":"error","name":"ERC20InvalidSpender","inputs":[{"name":"spender","type":"address","internalType":"address"}]}],"bytecode":{"object":"0x608034610447576001600160401b0390601f90601f19610fae388190038085018316840192919084841087851117610357578085926040958652833960209485918101031261044757518251946100558661044b565b600e86526d2230b49029ba30b13632b1b7b4b760911b90818688015284519061007d8261044b565b6003908183526244414960e81b8884015288518a811161035757825460019a8b82811c9216801561043d575b8b8310146104295781848493116103db575b508a90848311600114610376575f9261036b575b50505f1982851b1c1916908a1b1782555b8251928a84116103575760049687548b81811c9116801561034d575b8b82101461033a579081848796959493116102e6575b508a92851160011461028757505f9361027c575b505082891b925f19911b1c19161783555b33156102665760025469d3c21bcecceda1000000908181018091116102535790600e9291600255335f525f8752855f2081815401905585519081525f7fddf252ad1be2c89b69c2b068fc378daa952ba7f163c4a11628f55a4df523b3ef883393a38585516101a48161044b565b8381520190815220948484516101b98161044b565b82815201603160f81b8152208351948501957f8b73c3c69bb8fe3d512ecc4cf759cc79239f7b179b0ffacaa9a75d522b39400f87528486015260608501526080840152736b175474e89094c44da98b954eedeac495271d0f60a084015260a0835260c0830194838610908611176102405750839052519020600555610b4790816104678239f35b604190634e487b7160e01b5f525260245ffd5b601185634e487b7160e01b5f525260245ffd5b835163ec442f0560e01b81525f81850152602490fd5b015191505f80610126565b8b95939291931692885f528a5f20935f5b8c8282106102d057505085116102b7575b50505050811b018355610137565b01519060f8845f19921b161c191690555f8080806102a9565b8385015187558e98909601959384019301610298565b909192939450885f528a5f208480880160051c8201928d8910610331575b918e91899897969594930160051c01915b828110610323575050610112565b5f81558897508e9101610315565b92508192610304565b602289634e487b7160e01b5f525260245ffd5b90607f16906100fc565b634e487b7160e01b5f52604160045260245ffd5b015190505f806100cf565b90898d941691865f528c5f20928d5f905b8282106103bb57505084116103a4575b505050811b0182556100e0565b01515f1983871b60f8161c191690555f8080610397565b91929395968291958786015181550195019301908e95949392918e610387565b909150845f528a5f208480850160051c8201928d8610610420575b918e91869594930160051c01915b8281106104125750506100bb565b5f81558594508e9101610404565b925081926103f6565b634e487b7160e01b5f52602260045260245ffd5b91607f16916100a9565b5f80fd5b604081019081106001600160401b038211176103575760405256fe6080604090808252600480361015610015575f80fd5b5f3560e01c91826306fdde031461081157508163095ea7b3146107e857816318160ddd146107ca57816323b872dd146106d8578163249a9cda146106aa57816330adf81f14610670578163313ce567146106555781633644e5151461063757816354fd4d50146105ff57816370a08231146105c95781637ecebe00146105925781638fcbaf0c146102d857816395d89b41146101da57508063a9059cbb146101aa578063af17dea614610170578063dd62ed3e146101275763e2b9e186146100db575f80fd5b34610123575f36600319011261012357805161011f916100fa82610958565b600e82526d2230b49029ba30b13632b1b7b4b760911b60208301525191829182610902565b0390f35b5f80fd5b503461012357806003193601126101235760209061014361092c565b61014b610942565b9060018060a01b038091165f5260018452825f2091165f528252805f20549051908152f35b5034610123575f36600319011261012357805161011f9161019082610958565b600382526244414960e81b60208301525191829182610902565b50346101235780600319360112610123576020906101d36101c961092c565b60243590336109aa565b5160018152f35b8234610123575f366003190112610123578051905f9280549060018260011c91600184169384156102ce575b60209485851081146102bb578488529081156102995750600114610240575b61011f8686610236828b0383610988565b5191829182610902565b5f9081529295507f8a35acfbc15ff81a39ae7d344fd709f28e8600b4aa8c65c6b64bfe7fe36bd19b5b828410610286575050508261011f94610236928201019486610225565b8054868501880152928601928101610269565b60ff191687860152505050151560051b83010192506102368261011f86610225565b602283634e487b7160e01b5f525260245ffd5b92607f1692610206565b90503461012357610100366003190112610123576102f461092c565b906102fd610942565b9060443590608435906064358215158084036101235760a4359160ff83168093036101235787899260055494845191602096878401917fea2aa0a1be11a07ed86d755c93467f4f82362b452371d1ba94d1715123511acb835260018060a01b038096168098860152858d1660608601528b60808601528660a086015260c085015260c0845260e0840167ffffffffffffffff928582108483111761057f578f8290528551902061010086019261190160f01b8452610102870152610122860152604281526101608501928184109084111761056c57828f525190209286156105305750508b519182528186015260c435818c015260e43560608201525f808052859160809060015afa15610526575f511682036104ee5780159081156104e3575b50156104ab575f5260068152865f20938454905f1995868314610498576001830190550361046257506104589550501561045a5791610a84565b005b505f91610a84565b865162461bcd60e51b81529182015260116024820152704461692f696e76616c69642d6e6f6e636560781b604482015260649150fd5b601185634e487b7160e01b5f525260245ffd5b875162461bcd60e51b8152808401839052601260248201527111185a4bdc195c9b5a5d0b595e1c1a5c995960721b6044820152606490fd5b90504211155f61041e565b885162461bcd60e51b8152808501849052601260248201527111185a4bda5b9d985b1a590b5c195c9b5a5d60721b6044820152606490fd5b89513d5f823e3d90fd5b907404461692f696e76616c69642d616464726573732d3605c1b6101a46064938a62461bcd60e51b855261016482015260156101848201520152fd5b60418a634e487b7160e01b5f525260245ffd5b60418b634e487b7160e01b5f525260245ffd5b8234610123576020366003190112610123576020906001600160a01b036105b761092c565b165f5260068252805f20549051908152f35b8234610123576020366003190112610123576020906001600160a01b036105ee61092c565b165f525f8252805f20549051908152f35b8234610123575f36600319011261012357805161011f9161061f82610958565b60018252603160f81b60208301525191829182610902565b8234610123575f366003190112610123576020906005549051908152f35b8234610123575f366003190112610123576020905160128152f35b8234610123575f36600319011261012357602090517fea2aa0a1be11a07ed86d755c93467f4f82362b452371d1ba94d1715123511acb8152f35b8234610123575f3660031901126101235760209051736b175474e89094c44da98b954eedeac495271d0f8152f35b905034610123576060366003190112610123576106f361092c565b6106fb610942565b906044359260018060a01b038216805f526001602052855f20335f52602052855f2054915f198303610736575b6020876101d38888886109aa565b85831061079e57811561078857331561077257505f908152600160209081528682203383528152908690209185900390915582906101d3610728565b6024905f885191634a1406b160e11b8352820152fd5b6024905f88519163e602df0560e01b8352820152fd5b8651637dc7a0d960e11b8152339181019182526020820193909352604081018690528291506060010390fd5b8234610123575f366003190112610123576020906002549051908152f35b82346101235780600319360112610123576020906101d361080761092c565b6024359033610a84565b8334610123575f366003190112610123575f9260035460018160011c916001811680156108f8575b60209485851082146108e557508387529081156108c5575060011461086b575b5050506102368261011f940383610988565b60035f9081529295507fc2575a0e9e593c00f959f8c92f12db2869c3395a3b0502d05e2516446f71f85b5b8284106108b2575050508261011f946102369282010194610859565b8054868501880152928601928101610896565b60ff1916868501525050151560051b83010192506102368261011f610859565b602290634e487b7160e01b5f525260245ffd5b92607f1692610839565b602060409281835280519182918282860152018484015e5f828201840152601f01601f1916010190565b600435906001600160a01b038216820361012357565b602435906001600160a01b038216820361012357565b6040810190811067ffffffffffffffff82111761097457604052565b634e487b7160e01b5f52604160045260245ffd5b90601f8019910116810190811067ffffffffffffffff82111761097457604052565b916001600160a01b03808416928315610a6c5716928315610a5457825f525f60205260405f205490828210610a225750817fddf252ad1be2c89b69c2b068fc378daa952ba7f163c4a11628f55a4df523b3ef92602092855f525f84520360405f2055845f5260405f20818154019055604051908152a3565b60405163391434e360e21b81526001600160a01b03919091166004820152602481019190915260448101829052606490fd5b60405163ec442f0560e01b81525f6004820152602490fd5b604051634b637e8f60e11b81525f6004820152602490fd5b6001600160a01b03908116918215610af95716918215610ae15760207f8c5be1e5ebec7d5bd14f71427d1e84f3dd0314c0f7b2291e5b200ac8c7c3b92591835f526001825260405f20855f5282528060405f2055604051908152a3565b604051634a1406b160e11b81525f6004820152602490fd5b60405163e602df0560e01b81525f6004820152602490fdfea26469706673582212208ca4236ed29178b34baaaf57e85aba9b28efa0c642ba953dbc2e80745edfc19b64736f6c63430008190033","linkReferences":{}},"methodIdentifiers":{"DOMAIN_SEPARATOR()":"3644e515","PERMIT_TYPEHASH()":"30adf81f","allowance(address,address)":"dd62ed3e","approve(address,uint256)":"095ea7b3","balanceOf(address)":"70a08231","decimals()":"313ce567","name()":"06fdde03","name_()":"e2b9e186","nonces(address)":"7ecebe00","permit(address,address,uint256,uint256,bool,uint8,bytes32,bytes32)":"8fcbaf0c","symbol()":"95d89b41","symbol_()":"af17dea6","totalSupply()":"18160ddd","transfer(address,uint256)":"a9059cbb","transferFrom(address,address,uint256)":"23b872dd","verifyingContract_()":"249a9cda","version()":"54fd4d50"},"id":114}