{"abi":[{"type":"constructor","inputs":[],"stateMutability":"nonpayable"},{"type":"function","name":"allowance","inputs":[{"name":"owner","type":"address","internalType":"address"},{"name":"spender","type":"address","internalType":"address"}],"outputs":[{"name":"","type":"uint256","internalType":"uint256"}],"stateMutability":"view"},{"type":"function","name":"approve","inputs":[{"name":"spender","type":"address","internalType":"address"},{"name":"value","type":"uint256","internalType":"uint256"}],"outputs":[{"name":"","type":"bool","internalType":"bool"}],"stateMutability":"nonpayable"},{"type":"function","name":"asset","inputs":[],"outputs":[{"name":"","type":"address","internalType":"address"}],"stateMutability":"view"},{"type":"function","name":"balanceOf","inputs":[{"name":"account","type":"address","internalType":"address"}],"outputs":[{"name":"","type":"uint256","internalType":"uint256"}],"stateMutability":"view"},{"type":"function","name":"debt","inputs":[{"name":"issuer","type":"address","internalType":"address"},{"name":"recipient","type":"address","internalType":"address"}],"outputs":[{"name":"amount","type":"uint256","internalType":"uint256"}],"stateMutability":"view"},{"type":"function","name":"decimals","inputs":[],"outputs":[{"name":"","type":"uint8","internalType":"uint8"}],"stateMutability":"view"},{"type":"function","name":"deposit","inputs":[{"name":"recipient","type":"address","internalType":"address"},{"name":"amount","type":"uint256","internalType":"uint256"}],"outputs":[{"name":"","type":"uint256","internalType":"uint256"}],"stateMutability":"nonpayable"},{"type":"function","name":"deposit","inputs":[{"name":"recipient","type":"address","internalType":"address"},{"name":"amount","type":"uint256","internalType":"uint256"},{"name":"deadline","type":"uint256","internalType":"uint256"},{"name":"v","type":"uint8","internalType":"uint8"},{"name":"r","type":"bytes32","internalType":"bytes32"},{"name":"s","type":"bytes32","internalType":"bytes32"}],"outputs":[{"name":"","type":"uint256","internalType":"uint256"}],"stateMutability":"nonpayable"},{"type":"function","name":"increaseLimit","inputs":[{"name":"amount","type":"uint256","internalType":"uint256"}],"outputs":[],"stateMutability":"nonpayable"},{"type":"function","name":"initialize","inputs":[{"name":"asset_","type":"address","internalType":"address"},{"name":"initialLimit","type":"uint256","internalType":"uint256"},{"name":"limitIncreaser_","type":"address","internalType":"address"}],"outputs":[],"stateMutability":"nonpayable"},{"type":"function","name":"issueDebt","inputs":[{"name":"recipient","type":"address","internalType":"address"},{"name":"amount","type":"uint256","internalType":"uint256"}],"outputs":[],"stateMutability":"nonpayable"},{"type":"function","name":"issuerDebt","inputs":[{"name":"issuer","type":"address","internalType":"address"}],"outputs":[{"name":"amount","type":"uint256","internalType":"uint256"}],"stateMutability":"view"},{"type":"function","name":"issuerRepaidDebt","inputs":[{"name":"issuer","type":"address","internalType":"address"}],"outputs":[{"name":"amount","type":"uint256","internalType":"uint256"}],"stateMutability":"view"},{"type":"function","name":"limit","inputs":[],"outputs":[{"name":"","type":"uint256","internalType":"uint256"}],"stateMutability":"view"},{"type":"function","name":"limitIncreaser","inputs":[],"outputs":[{"name":"","type":"address","internalType":"address"}],"stateMutability":"view"},{"type":"function","name":"name","inputs":[],"outputs":[{"name":"","type":"string","internalType":"string"}],"stateMutability":"view"},{"type":"function","name":"recipientDebt","inputs":[{"name":"recipient","type":"address","internalType":"address"}],"outputs":[{"name":"amount","type":"uint256","internalType":"uint256"}],"stateMutability":"view"},{"type":"function","name":"recipientRepaidDebt","inputs":[{"name":"recipient","type":"address","internalType":"address"}],"outputs":[{"name":"amount","type":"uint256","internalType":"uint256"}],"stateMutability":"view"},{"type":"function","name":"repaidDebt","inputs":[{"name":"issuer","type":"address","internalType":"address"},{"name":"recipient","type":"address","internalType":"address"}],"outputs":[{"name":"amount","type":"uint256","internalType":"uint256"}],"stateMutability":"view"},{"type":"function","name":"setLimitIncreaser","inputs":[{"name":"limitIncreaser_","type":"address","internalType":"address"}],"outputs":[],"stateMutability":"nonpayable"},{"type":"function","name":"symbol","inputs":[],"outputs":[{"name":"","type":"string","internalType":"string"}],"stateMutability":"view"},{"type":"function","name":"totalDebt","inputs":[],"outputs":[{"name":"","type":"uint256","internalType":"uint256"}],"stateMutability":"view"},{"type":"function","name":"totalRepaidDebt","inputs":[],"outputs":[{"name":"","type":"uint256","internalType":"uint256"}],"stateMutability":"view"},{"type":"function","name":"totalSupply","inputs":[],"outputs":[{"name":"","type":"uint256","internalType":"uint256"}],"stateMutability":"view"},{"type":"function","name":"transfer","inputs":[{"name":"to","type":"address","internalType":"address"},{"name":"value","type":"uint256","internalType":"uint256"}],"outputs":[{"name":"","type":"bool","internalType":"bool"}],"stateMutability":"nonpayable"},{"type":"function","name":"transferFrom","inputs":[{"name":"from","type":"address","internalType":"address"},{"name":"to","type":"address","internalType":"address"},{"name":"value","type":"uint256","internalType":"uint256"}],"outputs":[{"name":"","type":"bool","internalType":"bool"}],"stateMutability":"nonpayable"},{"type":"function","name":"withdraw","inputs":[{"name":"recipient","type":"address","internalType":"address"},{"name":"amount","type":"uint256","internalType":"uint256"}],"outputs":[],"stateMutability":"nonpayable"},{"type":"event","name":"Approval","inputs":[{"name":"owner","type":"address","indexed":true,"internalType":"address"},{"name":"spender","type":"address","indexed":true,"internalType":"address"},{"name":"value","type":"uint256","indexed":false,"internalType":"uint256"}],"anonymous":false},{"type":"event","name":"Deposit","inputs":[{"name":"depositor","type":"address","indexed":true,"internalType":"address"},{"name":"recipient","type":"address","indexed":true,"internalType":"address"},{"name":"amount","type":"uint256","indexed":false,"internalType":"uint256"}],"anonymous":false},{"type":"event","name":"IncreaseLimit","inputs":[{"name":"amount","type":"uint256","indexed":false,"internalType":"uint256"}],"anonymous":false},{"type":"event","name":"Initialized","inputs":[{"name":"version","type":"uint64","indexed":false,"internalType":"uint64"}],"anonymous":false},{"type":"event","name":"IssueDebt","inputs":[{"name":"issuer","type":"address","indexed":true,"internalType":"address"},{"name":"recipient","type":"address","indexed":true,"internalType":"address"},{"name":"debtIssued","type":"uint256","indexed":false,"internalType":"uint256"}],"anonymous":false},{"type":"event","name":"RepayDebt","inputs":[{"name":"issuer","type":"address","indexed":true,"internalType":"address"},{"name":"recipient","type":"address","indexed":true,"internalType":"address"},{"name":"debtRepaid","type":"uint256","indexed":false,"internalType":"uint256"}],"anonymous":false},{"type":"event","name":"SetLimitIncreaser","inputs":[{"name":"limitIncreaser","type":"address","indexed":true,"internalType":"address"}],"anonymous":false},{"type":"event","name":"Transfer","inputs":[{"name":"from","type":"address","indexed":true,"internalType":"address"},{"name":"to","type":"address","indexed":true,"internalType":"address"},{"name":"value","type":"uint256","indexed":false,"internalType":"uint256"}],"anonymous":false},{"type":"event","name":"Withdraw","inputs":[{"name":"withdrawer","type":"address","indexed":true,"internalType":"address"},{"name":"recipient","type":"address","indexed":true,"internalType":"address"},{"name":"amount","type":"uint256","indexed":false,"internalType":"uint256"}],"anonymous":false},{"type":"error","name":"AddressEmptyCode","inputs":[{"name":"target","type":"address","internalType":"address"}]},{"type":"error","name":"AddressInsufficientBalance","inputs":[{"name":"account","type":"address","internalType":"address"}]},{"type":"error","name":"ERC20InsufficientAllowance","inputs":[{"name":"spender","type":"address","internalType":"address"},{"name":"allowance","type":"uint256","internalType":"uint256"},{"name":"needed","type":"uint256","internalType":"uint256"}]},{"type":"error","name":"ERC20InsufficientBalance","inputs":[{"name":"sender","type":"address","internalType":"address"},{"name":"balance","type":"uint256","internalType":"uint256"},{"name":"needed","type":"uint256","internalType":"uint256"}]},{"type":"error","name":"ERC20InvalidApprover","inputs":[{"name":"approver","type":"address","internalType":"address"}]},{"type":"error","name":"ERC20InvalidReceiver","inputs":[{"name":"receiver","type":"address","internalType":"address"}]},{"type":"error","name":"ERC20InvalidSender","inputs":[{"name":"sender","type":"address","internalType":"address"}]},{"type":"error","name":"ERC20InvalidSpender","inputs":[{"name":"spender","type":"address","internalType":"address"}]},{"type":"error","name":"ExceedsLimit","inputs":[]},{"type":"error","name":"FailedInnerCall","inputs":[]},{"type":"error","name":"InsufficientDeposit","inputs":[]},{"type":"error","name":"InsufficientIssueDebt","inputs":[]},{"type":"error","name":"InsufficientWithdraw","inputs":[]},{"type":"error","name":"InvalidInitialization","inputs":[]},{"type":"error","name":"NotInitializing","inputs":[]},{"type":"error","name":"NotLimitIncreaser","inputs":[]},{"type":"error","name":"ReentrancyGuardReentrantCall","inputs":[]},{"type":"error","name":"SafeERC20FailedOperation","inputs":[{"name":"token","type":"address","internalType":"address"}]},{"type":"error","name":"UnsafeCast","inputs":[]}],"bytecode":{"object":"0x6080806040523460b4577ff0c57e16840df040f15088dc2f81fe391c3923bec73e23a9662efc9c229c6a009081549060ff8260401c1660a557506001600160401b036002600160401b0319828216016061575b60405161201390816100b98239f35b6001600160401b031990911681179091556040519081527fc7f505b2f371ae2175ee4913f4499e1f2633a7b5936321eed1cdaeb6115181d290602090a15f80806052565b63f92ee8a960e01b8152600490fd5b5f80fdfe60806040526004361015610011575f80fd5b5f3560e01c8063055bee72146101c457806306fdde03146101bf578063095ea7b3146101ba5780630aa28714146101b557806318160ddd146101b05780631f320d77146101ab57806323b872dd146101a6578063313ce567146101a157806332f84a3b1461019c57806338d52e0f1461019757806347e7ef24146101925780635f7776071461018d5780636468c9e11461018857806370a08231146101835780637715be0b1461017e578063880721e31461017957806395d89b41146101745780639eb2b2061461016f578063a4d66daf1461016a578063a9059cbb14610165578063c350a1b514610160578063c57584891461015b578063d449300d14610156578063dd62ed3e14610151578063f2dee6221461014c578063f3fef3a3146101475763fc7b9c1814610142575f80fd5b610f63565b610ed7565b610eba565b610e9d565b610e62565b610bed565b610a9e565b610a69565b610a4c565b610a11565b61095f565b61091b565b6107a5565b61074b565b610710565b6106d5565b6106a2565b610677565b61063c565b6105ad565b610510565b61049f565b610476565b6103fa565b610338565b610237565b6101d7565b5f9103126101d357565b5f80fd5b346101d3575f3660031901126101d357600a546040516001600160a01b039091168152602090f35b805180835260209291819084018484015e5f828201840152601f01601f1916010190565b9060206102349281815201906101ff565b90565b346101d3575f3660031901126101d3576040515f5f80516020611f5e83398151915280549061026582610f80565b808552916020916001918281169081156102fa57506001146102a2575b61029e866102928188038261101d565b60405191829182610223565b0390f35b5f90815293507f2ae08a8e29253f69ac5d979a101956ab8f8d9d7ded63fa7a83b16fc47648eab05b8385106102e7575050505081016020016102928261029e5f610282565b80548686018401529382019381016102ca565b905086955061029e9693506020925061029294915060ff191682840152151560051b82010192935f610282565b6001600160a01b038116036101d357565b346101d35760403660031901126101d35760043561035581610327565b60243533156103e2576001600160a01b0382169182156103ca57610392829161037d336105cc565b9060018060a01b03165f5260205260405f2090565b556040519081527f8c5be1e5ebec7d5bd14f71427d1e84f3dd0314c0f7b2291e5b200ac8c7c3b92560203392a3602060405160018152f35b604051634a1406b160e11b81525f6004820152602490fd5b60405163e602df0560e01b81525f6004820152602490fd5b346101d35760203660031901126101d357600a54600435906001600160a01b031633036104645760095481810180911161045f577f7db0c775af0de83157f8daa1aa2e3ded9fc1b9b2c59ce540207c9cc286f4652791602091600955604051908152a1005b61103f565b6040516301c90f3b60e01b8152600490fd5b346101d3575f3660031901126101d35760205f80516020611f9e83398151915254604051908152f35b346101d35760203660031901126101d3576004356104bc81610327565b600a54906001600160a01b03908183163303610464571680916bffffffffffffffffffffffff60a01b1617600a557fc60dce8ee7742d2c2b79ac9131cecf283fca0f1da763a6f20920cc04ec80e4e55f80a2005b346101d35760603660031901126101d35760043561052d81610327565b60243561053981610327565b6044359061054a3361037d856105cc565b54926001840161056b575b61055f935061152b565b60405160018152602090f35b828410610587576105828361055f95033383611a50565b610555565b604051637dc7a0d960e11b81523360048201526024810185905260448101849052606490fd5b346101d3575f3660031901126101d357602060ff5f5416604051908152f35b6001600160a01b03165f9081527f52c63247e1f47db19d5ce0460030c497f067ca4cebf71ba98eeadabe20bace016020526040902090565b6001600160a01b03165f9081527f52c63247e1f47db19d5ce0460030c497f067ca4cebf71ba98eeadabe20bace006020526040902090565b346101d35760203660031901126101d35760043561065981610327565b60018060a01b03165f526003602052602060405f2054604051908152f35b346101d3575f3660031901126101d3575f5460405160089190911c6001600160a01b03168152602090f35b346101d35760403660031901126101d35760206106cd6004356106c481610327565b60243590611060565b604051908152f35b346101d35760203660031901126101d3576004356106f281610327565b60018060a01b03165f526002602052602060405f2054604051908152f35b346101d35760203660031901126101d35760043561072d81610327565b60018060a01b03165f526007602052602060405f2054604051908152f35b346101d35760203660031901126101d35760043561076881610327565b60018060a01b03165f527f52c63247e1f47db19d5ce0460030c497f067ca4cebf71ba98eeadabe20bace00602052602060405f2054604051908152f35b346101d35760403660031901126101d3576004356107c281610327565b60243580156108e4576107d58133611776565b6040518181526001600160a01b038316926108b491839190859033907f94d718798b5bf599360e731fe04c43db32daf30624eb7eef736635b7ce43e92490602090a361082b61082683600154611053565b600155565b335f908152600260205260409020610844838254611053565b90556001600160a01b0381165f908152600360205260409020610868838254611053565b9055335f90815260046020526040902061088390829061037d565b61088e838254611053565b90555f546108af9060081c6001600160a01b03165b6001600160a01b031690565b61181e565b60405190815233907fb92c2305723a5c84fe23da1e9f53750e00b192f70950944b1821f93ce10c814390602090a3005b6040516316163cad60e21b8152600490fd5b60409060031901126101d35760043561090e81610327565b9060243561023481610327565b346101d357602061095661092e366108f6565b6001600160a01b039182165f9081526004855260408082209290931681526020919091522090565b54604051908152f35b346101d3575f3660031901126101d3576040515f5f80516020611f7e83398151915280549061098d82610f80565b808552916020916001918281169081156102fa57506001146109b95761029e866102928188038261101d565b5f90815293507f46a2803e59a4de4e7a4c574b1243f25977ac4c77d5a1a4a609b5394cebb4a2aa5b8385106109fe575050505081016020016102928261029e5f610282565b80548686018401529382019381016109e1565b346101d35760203660031901126101d357600435610a2e81610327565b60018060a01b03165f526006602052602060405f2054604051908152f35b346101d3575f3660031901126101d3576020600954604051908152f35b346101d35760403660031901126101d357610a93600435610a8981610327565b602435903361152b565b602060405160018152f35b346101d35760603660031901126101d357600435610abb81610327565b60443590610ac882610327565b5f80516020611fbe833981519152549167ffffffffffffffff60ff8460401c1615931680159081610bda575b6001149081610bd0575b159081610bc7575b50610bb5575f80516020611fbe833981519152805467ffffffffffffffff19166001179055610b3e9183610b8c575b6024359061139a565b610b4457005b5f80516020611fbe833981519152805460ff60401b19169055604051600181527fc7f505b2f371ae2175ee4913f4499e1f2633a7b5936321eed1cdaeb6115181d290602090a1005b5f80516020611fbe833981519152805460ff60401b191668010000000000000000179055610b35565b60405163f92ee8a960e01b8152600490fd5b9050155f610b06565b303b159150610afe565b849150610af4565b60ff8116036101d357565b346101d35760c03660031901126101d357600435610c0a81610327565b60243590604435606435610c1d81610be2565b60843560a4359160018060a01b035f5460081c1693604051602080820191633644e51560e01b835260048152610c5281610fe5565b5f925f9173c02aaa39b223fe8d0a0e5c4f27ead9083c756cc28a03610e3f575b505082610cc4575b5050918795939161029e98610c9c98969415610cac575b505050505050611060565b6040519081529081906020820190565b610cb99530903390611da3565b5f8080808086610c91565b7fdbb8cf42e1ecb028be3f3dbc922e1d878b963f411dc388ced501601c60f7c6f791999795939896949250145f14610ddb57604051623f675f60e91b8152336004820152968888602481885afa988915610dd6575f80899284610d8f61029e9e610c9c9e8591610da9575b506040516323f2ebc360e21b8582015233602482015230604482015260648101919091526084810192909252600160a483015260ff881660c483015260e4820189905261010482018a90528161012481015b03601f19810183528261101d565b905b81519101828a5af19294969850988193959750610c7a565b610dc99150843d8611610dcf575b610dc1818361101d565b81019061123b565b5f610d2f565b503d610db7565b61124a565b60405163d505accf60e01b818a0152336024820152306044820152606481018790526084810188905260ff821660a482015260c4810183905260e4810184905261029e98610c9c989188915f91829190610e39816101048101610d81565b90610d91565b8394505f9250519089611388fa90803d14915f519283151516168092905f610c72565b346101d3576020610956610e75366108f6565b6001600160a01b039182165f9081526008855260408082209290931681526020919091522090565b346101d357602061095661037d610eb3366108f6565b91906105cc565b346101d3575f3660031901126101d3576020600154604051908152f35b346101d35760403660031901126101d357600435610ef481610327565b602435908115610f5157610f088233611776565b60018060a01b0390610f218382845f5460081c1661181e565b60405192835216907f9b1bfa7fa9ee420a16e124f794c35ac9f90472acc99140eb2f6447c714cad8eb60203392a3005b60405163c0b99cad60e01b8152600490fd5b346101d3575f3660031901126101d3576020600554604051908152f35b90600182811c92168015610fae575b6020831014610f9a57565b634e487b7160e01b5f52602260045260245ffd5b91607f1691610f8f565b634e487b7160e01b5f52604160045260245ffd5b67ffffffffffffffff8111610fe057604052565b610fb8565b6040810190811067ffffffffffffffff821117610fe057604052565b6080810190811067ffffffffffffffff821117610fe057604052565b90601f8019910116810190811067ffffffffffffffff821117610fe057604052565b634e487b7160e01b5f52601160045260245ffd5b9190820180921161045f57565b7f9b779b17422d0df92223018b32b4d1fa46e071723d6817e2486d003becc55f00600281541461122957600290555f546110a59060081c6001600160a01b03166108a3565b6040516370a0823160e01b8082523060048301526001600160a01b03946020938484602481848b165afa938415610dd6575f94611204575b50906110ec913090339061160f565b5f548390611107906108a39060081c6001600160a01b031681565b604051928352306004840152829060249082905afa908115610dd657611135935f926111e7575b5050611255565b9182156111d557611154835f80516020611f9e83398151915254611053565b600954106111c3576111668383611709565b60405183815291169033907f5548c837ab068cf56a2c2479df0882a4922fd203edb7517321831d95078c5f6290602090a3906111c160017f9b779b17422d0df92223018b32b4d1fa46e071723d6817e2486d003becc55f0055565b565b604051632795088960e11b8152600490fd5b60405163070f6eed60e11b8152600490fd5b6111fd9250803d10610dcf57610dc1818361101d565b5f8061112e565b6110ec9291945061122190863d8811610dcf57610dc1818361101d565b9390916110dd565b604051633ee5aeb560e01b8152600490fd5b908160209103126101d3575190565b6040513d5f823e3d90fd5b9190820391821161045f57565b604051906111c182611001565b604051906060820182811067ffffffffffffffff821117610fe057604052565b67ffffffffffffffff8111610fe057601f01601f191660200190565b6020818303126101d35780519067ffffffffffffffff82116101d3570181601f820112156101d3578051906112df8261128f565b926112ed604051948561101d565b828452602083830101116101d357815f9260208093018386015e8301015290565b805191908290602001825e015f815290565b906111c1611353926040519384917144656661756c74436f6c6c61746572616c5f60701b6020840152603283019061130e565b03601f19810184528361101d565b906111c1611353926040519384916244435f60e81b6020840152602383019061130e565b908160209103126101d3575161023481610be2565b6040516306fdde0360e01b81529092916001600160a01b038416915f81600481865afa8015610dd6576113d85f916004938391611511575b50611320565b93604051928380926395d89b4160e01b82525afa948515610dd65761141861144b9461141261146d98611446955f916114ef575b50611361565b906118f4565b611420611a1a565b5f8054610100600160a81b03191660089290921b610100600160a81b0316919091179055565b600955565b60018060a01b03166bffffffffffffffffffffffff60a01b600a541617600a55565b5f5460049060209061148c906108a39060081c6001600160a01b031681565b60405163313ce56760e01b815292839182905afa8015610dd6576111c1915f916114c0575b5060ff1660ff195f5416175f55565b6114e2915060203d6020116114e8575b6114da818361101d565b810190611385565b5f6114b1565b503d6114d0565b61150b91503d805f833e611503818361101d565b8101906112ab565b5f61140c565b61152591503d8085833e611503818361101d565b5f6113d2565b916001600160a01b03808416929083156115f75781169384156115df5761155181610604565b548381106115b0576115ab92849261158f7fddf252ad1be2c89b69c2b068fc378daa952ba7f163c4a11628f55a4df523b3ef96611595940391610604565b55610604565b8054820190556040519081529081906020820190565b0390a3565b60405163391434e360e21b81526001600160a01b03929092166004830152602482015260448101839052606490fd5b60405163ec442f0560e01b81525f6004820152602490fd5b604051634b637e8f60e11b81525f6004820152602490fd5b6040516323b872dd60e01b60208281019182526001600160a01b0380861660248501528616604484015260648301879052939592949361166d9290915f9161165a8160848101610d81565b519082885af15f516001143d1517161590565b611678575b50505050565b61168190611a77565b906e22d473030f116ddee9f6b43ac78ba390813b156101d357604051631b63c28b60e11b81526001600160a01b039586166004820152908516602482015291841660448301529190921660648301525f908290608490829084905af18015610dd6576116f0575b808080611672565b806116fd61170392610fcc565b806101c9565b5f6116e8565b6001600160a01b038116919082156115df575f80516020611f9e8339815191529182549080820180921161045f576117677fddf252ad1be2c89b69c2b068fc378daa952ba7f163c4a11628f55a4df523b3ef936020935f9655610604565b818154019055604051908152a3565b91906001600160a01b0383169081156115f75761179284610604565b54938185106117ec57816020916117ce7fddf252ad1be2c89b69c2b068fc378daa952ba7f163c4a11628f55a4df523b3ef945f97980391610604565b555f80516020611f9e833981519152818154039055604051908152a3565b60405163391434e360e21b81526001600160a01b03919091166004820152602481018590526044810191909152606490fd5b915f80916118919360405195602087019263a9059cbb60e01b845260018060a01b03809316602489015260448801526044875261185a87611001565b1694519082865af13d156118ec573d906118738261128f565b91611881604051938461101d565b82523d5f602084013e5b83611efa565b80519081151591826118ca575b50506118a75750565b604051635274afe760e01b81526001600160a01b03919091166004820152602490fd5b6118e59250906020806118e1938301019101611a9d565b1590565b5f8061189e565b60609061188b565b91906118fe611ab5565b611906611ab5565b825167ffffffffffffffff8111610fe0575f80516020611f5e83398151915290611939816119348454610f80565b611ae3565b602080601f83116001146119805750908061196e926111c196975f92611975575b50508160011b915f199060031b1c19161790565b9055611bd5565b015190505f8061195a565b90601f198316966119be5f80516020611f5e8339815191525f527f2ae08a8e29253f69ac5d979a101956ab8f8d9d7ded63fa7a83b16fc47648eab090565b925f905b898210611a02575050908392916001946111c19899106119ea575b505050811b019055611bd5565b01515f1960f88460031b161c191690555f80806119dd565b806001859682949686015181550195019301906119c2565b611a22611ab5565b611a2a611ab5565b60017f9b779b17422d0df92223018b32b4d1fa46e071723d6817e2486d003becc55f0055565b906001600160a01b03808316156103e2578116156103ca5761037d611a74926105cc565b55565b6001600160a01b0390818111611a8b571690565b60405163c4bd89a960e01b8152600490fd5b908160209103126101d3575180151581036101d35790565b60ff5f80516020611fbe8339815191525460401c1615611ad157565b604051631afcd79f60e31b8152600490fd5b601f8111611aef575050565b5f80516020611f5e8339815191525f527f2ae08a8e29253f69ac5d979a101956ab8f8d9d7ded63fa7a83b16fc47648eab0906020601f840160051c83019310611b52575b601f0160051c01905b818110611b47575050565b5f8155600101611b3c565b9091508190611b33565b601f8111611b68575050565b5f80516020611f7e8339815191525f527f46a2803e59a4de4e7a4c574b1243f25977ac4c77d5a1a4a609b5394cebb4a2aa906020601f840160051c83019310611bcb575b601f0160051c01905b818110611bc0575050565b5f8155600101611bb5565b9091508190611bac565b90815167ffffffffffffffff8111610fe0575f80516020611f7e83398151915290611c0981611c048454610f80565b611b5c565b602080601f8311600114611c3e57508190611c3a9394955f926119755750508160011b915f199060031b1c19161790565b9055565b90601f19831695611c7c5f80516020611f7e8339815191525f527f46a2803e59a4de4e7a4c574b1243f25977ac4c77d5a1a4a609b5394cebb4a2aa90565b925f905b888210611cb757505083600195969710611c9f575b505050811b019055565b01515f1960f88460031b161c191690555f8080611c95565b80600185968294968601518155019501930190611c80565b519065ffffffffffff821682036101d357565b908160609103126101d3578051611cf881610327565b916102346040611d0a60208501611ccf565b9301611ccf565b929190604051936020850152604084015260ff60f81b166060830152604182526111c182611001565b604061023494936101009360018060a01b038091168452815181815116602086015281602082015116848601526060848201519165ffffffffffff80931682880152015116608085015260208201511660a0840152015160c08201528160e082015201906101ff565b60405163927da10560e01b81526001600160a01b038381166004830152918216602482018190529184166044820152909791966e22d473030f116ddee9f6b43ac78ba39690959294909391906060826064818b5afa918215610dd6575f92611ec2575b50611e1090611a77565b611e18611262565b6001600160a01b03909a168a526001600160a01b031660208a015265ffffffffffff60408a015265ffffffffffff166060890152611e5461126f565b9788526001600160a01b03166020880152604087015260ff60f81b9060f81b1690611e7e92611d11565b90803b156101d357611eaa935f8094604051968795869485936302b67b5760e41b855260048501611d3a565b03925af1611eb55750565b806116fd6111c192610fcc565b611e10919250611ee99060603d606011611ef3575b611ee1818361101d565b810190611ce2565b9150509190611e06565b503d611ed7565b90611f215750805115611f0f57805190602001fd5b604051630a12f52160e11b8152600490fd5b81511580611f54575b611f32575090565b604051639996b31560e01b81526001600160a01b039091166004820152602490fd5b50803b15611f2a56fe52c63247e1f47db19d5ce0460030c497f067ca4cebf71ba98eeadabe20bace0352c63247e1f47db19d5ce0460030c497f067ca4cebf71ba98eeadabe20bace0452c63247e1f47db19d5ce0460030c497f067ca4cebf71ba98eeadabe20bace02f0c57e16840df040f15088dc2f81fe391c3923bec73e23a9662efc9c229c6a00a2646970667358221220c3e72eb47eea3106380fb2c3527547fd022740e5c5de2ef642e75f92f43bb98264736f6c63430008190033","linkReferences":{}},"methodIdentifiers":{"allowance(address,address)":"dd62ed3e","approve(address,uint256)":"095ea7b3","asset()":"38d52e0f","balanceOf(address)":"70a08231","debt(address,address)":"d449300d","decimals()":"313ce567","deposit(address,uint256)":"47e7ef24","deposit(address,uint256,uint256,uint8,bytes32,bytes32)":"c5758489","increaseLimit(uint256)":"0aa28714","initialize(address,uint256,address)":"c350a1b5","issueDebt(address,uint256)":"7715be0b","issuerDebt(address)":"9eb2b206","issuerRepaidDebt(address)":"5f777607","limit()":"a4d66daf","limitIncreaser()":"055bee72","name()":"06fdde03","recipientDebt(address)":"6468c9e1","recipientRepaidDebt(address)":"32f84a3b","repaidDebt(address,address)":"880721e3","setLimitIncreaser(address)":"1f320d77","symbol()":"95d89b41","totalDebt()":"fc7b9c18","totalRepaidDebt()":"f2dee622","totalSupply()":"18160ddd","transfer(address,uint256)":"a9059cbb","transferFrom(address,address,uint256)":"23b872dd","withdraw(address,uint256)":"f3fef3a3"},"id":90}